:1000000057C0D8C170C06FC06EC06DC06CC06BC02F
:100010006AC069C068C067C066C065C064C00902C4
:100020002200010100A019090400000103000000E2
:100030000921010100012223000705810308000AAC
:100040001201100100000008424231E100010102EA
:1000500000011E0331002D004B00650079002D00CA
:100060004B006500790062006F006100720064005F
:10007000180366006C006900700077006F00720062
:100080006B002E006E006C000403090405010906D4
:10009000A101050719E029E715002501750195085B
:1000A0008102950175082565190029658100C00048
:1000B00011241FBECFE5D2E0DEBFCDBF10E0A0E629
:1000C000B0E0E2E0F8E002C005900D92A236B10780
:1000D000D9F720E0A2E6B0E001C01D92A23AB20733
:1000E000E1F71CD38CC38CCFCF93C62F2091770020
:1000F00024FF18C02091780038E823272093780047
:100100002C2FFC01A9E7B0E081918D9321501216AC
:10011000DCF36C2F89E790E036D1CC5FC093770099
:10012000CF9108952AE520937700EACFCF93DF930C
:1001300080918800835087FD27C0909184009D3274
:1001400009F58830F9F480918500CCE0D0E0C81B37
:10015000D109C457DF4F83EC80936C008AE580930C
:100160006100109263008881807609F464C0CE013A
:1001700070D29F81911104C09E81981708F4892F35
:1001800080936000109288008091610084FF3BC0E2
:10019000809160008F3FB9F1C82F893008F0C8E026
:1001A0008C1B8093600080916C0098E88927809375
:1001B0006C00CC23E1F04091860050918700809143
:1001C000630086FFB5C0ADE6B0E0FA019C2F8491D4
:1001D0008D9331969150D9F72FEF2C0F30E02F5F90
:1001E0003F4F240F351F30938700209386006C2FDC
:1001F0008DE690E0C8D0CC5FCC3019F08FEF8093C3
:100200006000C093610084E196B3957031F4815031
:10021000D9F71092890010928300C1E08111C0E0EB
:1002200090916200C91721F0811135D2C09362000C
:10023000DF91CF9108952A811092750099819111D3
:100240000AC01092760025E730E082E03093870004
:10025000209386008ECF953029F42093890025E7DE
:1002600030E0F4CF963009F04CC09B81913059F4C6
:1002700080E490E0909387008093860082E190E490
:100280009093630076CF923041F48EE190E09093AA
:1002900087008093860082E2F2CF9330F1F421113F
:1002A00008C088E890E0909387008093860084E0FF
:1002B000E6CF213041F480E790E09093870080936F
:1002C000860088E1DCCF2230D1F682E590E0909381
:1002D0008700809386008EE1D2CF913241F480E393
:1002E00090E0909387008093860089E0C8CF923297
:1002F00031F68CE890E0909387008093860083E24B
:10030000BECF983071F0993019F420938B00A7CFAD
:100310009A3059F09B3009F0A2CF9BE4909378007B
:100320009ECF2BE830E081E091CF25E730E0FBCF96
:10033000DA01EDE6F0E09C2F8D9181939150E1F789
:100340004BCF85B7836085BF8BB780648BBFE7E7F2
:10035000F0E08BE481838AE580830895A82FB92F8C
:1003600080E090E041E050EA609530E009C02D91D6
:1003700082279795879510F084279527305EC8F3DC
:100380006F5FA8F30895EADF8D939D930895A6E02B
:1003900088279927AA9569F00197E1F3B099FCCFD6
:1003A000B09BFECF81E09927A6B3019611F0A5700E
:1003B000D9F70895CF93CFB7CF93C395B09BE9F703
:1003C000B09B09C0B09B07C0B09B05C0B09B03C0E9
:1003D000B09B01C0A3C0DF93C0918500DD27C45747
:1003E000DF4FB09B02C0DF91EBCF2F930F931F9392
:1003F00006B32FEF00FB20F94F933F9316B34FEF57
:10040000012700FB21F93BE031C04E7F012F16B3DD
:10041000216028C0102F4D7F2260000006B329C044
:100420004B7F2460012F000016B32BC016B3477F0B
:1004300028602AC04F7E06B320612CC04F7D16B3C2
:1004400020622FC04F7B06B3206432C0422706B320
:1004500049934FEF0000102710FB20F916B31570D9
:10046000C9F1297F91F2012700FB21F906B3237F0F
:1004700089F2315058F1102710FB22F916B3277E6C
:1004800079F2012700FB23F92F7C81F206B31027B4
:1004900010FB24F92F7971F200C016B3012700FB7D
:1004A00025F92F7359F200C006B3102710FB26F967
:1004B000223040F200C016B3012700FB27F9243098
:1004C00028F64F77206816B30000F9CF10E41ABF62
:1004D000002719C03B503195C31BD04010E41ABF10
:1004E0000881033CF9F00B34E9F020918300198175
:1004F000110F1213EDCF4A81441F093641F10D321D
:1005000011F0013E29F700938A003F914F911F910E
:100510000F912F91DF91CAB7C6FD4FCFCF91CFBFBB
:10052000CF91189520918A00222379F310918800A9
:10053000112369F534306AF13093880020938400E8
:10054000109185003BE0311B3093850022C0009163
:1005500088000130E4F40AE54F7049F430916100FD
:1005600034FD19C000936100CCE6D0E018C0309192
:10057000770034FD10C000937700C8E7D0E00FC0CB
:100580002795A8F45150A9F4220F0000F9CF4AE5AD
:1005900003C042ED01C0432FC4E1D0E032E017B305
:1005A0001560C09A17BB08B320E415E05F930127DC
:1005B00056E008BB279520F4515021F4220FF9CFC3
:1005C000012756E000003B5A08BBD0F2279528F4DB
:1005D000515029F4220F0000F9CF012756E027954A
:1005E00008BB20F4515021F4220FF9CF012756E027
:1005F0002991332308BB21F60A7F10918900110F3E
:10060000C651D04008BB11F01093830010E41ABF0C
:10061000016017B31A7F402F4A7F5F9100C000C06E
:1006200008BB17BB48BB71CF8091680081110DC01A
:1006300090916700913059F09FE28F5F809368003E
:1006400010926A0090936B00089590E0F6CF90E3CB
:10065000F4CFFC018AE690E09093870080938600B7
:10066000808180768032A9F48181813019F4DCDFC9
:1006700082E00895823041F489E690E0909387000B
:100680008093860081E008958A3019F483818093F5
:10069000690080E00895DF92EF92FF920F931F931D
:1006A000CF93DF9308E010E0C0E0D0E8DD2EDC0E51
:1006B000D1BE6DDE7C0181EBE81686E0F8060CF415
:1006C000CD2DD6950150110989F78FEF8C0F81BF81
:1006D0000C2F10E00F5F1F4F81B790E0081719072C
:1006E00064F4C1BF61B780E090E0DF91CF911F91CA
:1006F0000F91FF90EF90DF9074C049DE815B9640D0
:1007000097FF03C09195819591098E159F0514F46B
:10071000C1B77C0181B78F5F81BFDECF80E090E001
:1007200058D08F3F09F081BF0CDEB89A80E081502D
:1007300009F047C0B8989EE088E10FB6F894A895F4
:1007400081BD0FBE91BDC39A8BE080BF7894C1E09C
:10075000D4E0A895EBDC8091770084FF09C08091FC
:100760006800823028F460DF62E08AE690E0BCDC5A
:1007700086B383FB882780F98C27909167008917BF
:1007800051F090916600913031F48093670010929F
:1007900066001092680008B602FEDBCFD8BF8091D9
:1007A00064009091650001969093650080936400C9
:1007B000039778F21092650010926400C09366006F
:1007C000C8CFA895E7EBFBE03197F1F700C0000038
:1007D000AECFE199FECF9FBB8EBBE09A99278DB338
:1007E0000895262FE199FECF1CBA9FBB8EBB2DBB6F
:1007F0000FB6F894E29AE19A0FBE01960895F89424
:02080000FFCF28
:02080200FF5A9B
:00000001FF
